{
  "contractName": "SharedTaxiBusiness",
  "abi": [
    {
      "inputs": [],
      "payable": false,
      "stateMutability": "nonpayable",
      "type": "constructor"
    },
    {
      "constant": false,
      "inputs": [],
      "name": "join",
      "outputs": [],
      "payable": true,
      "stateMutability": "payable",
      "type": "function"
    },
    {
      "constant": false,
      "inputs": [
        {
          "name": "_carDealer",
          "type": "address"
        }
      ],
      "name": "setCarDealer",
      "outputs": [],
      "payable": false,
      "stateMutability": "nonpayable",
      "type": "function"
    },
    {
      "constant": false,
      "inputs": [
        {
          "name": "_carId",
          "type": "uint256"
        },
        {
          "name": "_price",
          "type": "uint256"
        },
        {
          "name": "_offerValidTime",
          "type": "uint256"
        }
      ],
      "name": "carPropose",
      "outputs": [],
      "payable": false,
      "stateMutability": "nonpayable",
      "type": "function"
    },
    {
      "constant": false,
      "inputs": [],
      "name": "purchaseCar",
      "outputs": [],
      "payable": true,
      "stateMutability": "payable",
      "type": "function"
    },
    {
      "constant": false,
      "inputs": [
        {
          "name": "_carId",
          "type": "uint256"
        },
        {
          "name": "_price",
          "type": "uint256"
        },
        {
          "name": "_offerValidTime",
          "type": "uint256"
        },
        {
          "name": "_approvalState",
          "type": "uint256"
        }
      ],
      "name": "purchasePropose",
      "outputs": [],
      "payable": false,
      "stateMutability": "nonpayable",
      "type": "function"
    },
    {
      "constant": false,
      "inputs": [],
      "name": "approveSellProposal",
      "outputs": [],
      "payable": false,
      "stateMutability": "nonpayable",
      "type": "function"
    },
    {
      "constant": false,
      "inputs": [],
      "name": "sellCar",
      "outputs": [],
      "payable": true,
      "stateMutability": "payable",
      "type": "function"
    },
    {
      "constant": false,
      "inputs": [
        {
          "name": "_taxiDriver",
          "type": "address"
        }
      ],
      "name": "setDriver",
      "outputs": [],
      "payable": false,
      "stateMutability": "nonpayable",
      "type": "function"
    },
    {
      "constant": false,
      "inputs": [],
      "name": "getCharge",
      "outputs": [],
      "payable": true,
      "stateMutability": "payable",
      "type": "function"
    },
    {
      "constant": false,
      "inputs": [],
      "name": "paySalary",
      "outputs": [],
      "payable": false,
      "stateMutability": "nonpayable",
      "type": "function"
    },
    {
      "constant": false,
      "inputs": [],
      "name": "getSalary",
      "outputs": [],
      "payable": false,
      "stateMutability": "nonpayable",
      "type": "function"
    },
    {
      "constant": false,
      "inputs": [],
      "name": "carExpenses",
      "outputs": [],
      "payable": false,
      "stateMutability": "nonpayable",
      "type": "function"
    },
    {
      "constant": false,
      "inputs": [],
      "name": "payDividend",
      "outputs": [],
      "payable": false,
      "stateMutability": "nonpayable",
      "type": "function"
    },
    {
      "constant": false,
      "inputs": [],
      "name": "getDividend",
      "outputs": [],
      "payable": false,
      "stateMutability": "nonpayable",
      "type": "function"
    },
    {
      "constant": true,
      "inputs": [],
      "name": "getParticipantsAddresses",
      "outputs": [
        {
          "name": "",
          "type": "address[]"
        }
      ],
      "payable": false,
      "stateMutability": "view",
      "type": "function"
    },
    {
      "constant": true,
      "inputs": [
        {
          "name": "_address",
          "type": "address"
        }
      ],
      "name": "getBalance",
      "outputs": [
        {
          "name": "",
          "type": "uint256"
        }
      ],
      "payable": false,
      "stateMutability": "view",
      "type": "function"
    },
    {
      "constant": true,
      "inputs": [],
      "name": "getProposedCar",
      "outputs": [
        {
          "components": [
            {
              "name": "carId",
              "type": "uint256"
            },
            {
              "name": "price",
              "type": "uint256"
            },
            {
              "name": "offerValidTime",
              "type": "uint256"
            }
          ],
          "name": "",
          "type": "tuple"
        }
      ],
      "payable": false,
      "stateMutability": "view",
      "type": "function"
    },
    {
      "constant": true,
      "inputs": [],
      "name": "getMyBalance",
      "outputs": [
        {
          "name": "",
          "type": "uint256"
        }
      ],
      "payable": false,
      "stateMutability": "view",
      "type": "function"
    },
    {
      "constant": true,
      "inputs": [],
      "name": "getContractBalance",
      "outputs": [
        {
          "name": "",
          "type": "uint256"
        }
      ],
      "payable": false,
      "stateMutability": "view",
      "type": "function"
    },
    {
      "constant": true,
      "inputs": [],
      "name": "getParticipantsNumber",
      "outputs": [
        {
          "name": "",
          "type": "uint256"
        }
      ],
      "payable": false,
      "stateMutability": "view",
      "type": "function"
    },
    {
      "constant": true,
      "inputs": [],
      "name": "getParticipationFee",
      "outputs": [
        {
          "name": "",
          "type": "uint256"
        }
      ],
      "payable": false,
      "stateMutability": "view",
      "type": "function"
    },
    {
      "constant": true,
      "inputs": [],
      "name": "getMaxParticipant",
      "outputs": [
        {
          "name": "",
          "type": "uint256"
        }
      ],
      "payable": false,
      "stateMutability": "view",
      "type": "function"
    },
    {
      "constant": true,
      "inputs": [],
      "name": "getReports",
      "outputs": [
        {
          "name": "",
          "type": "uint256"
        },
        {
          "name": "",
          "type": "uint256"
        },
        {
          "name": "",
          "type": "uint256"
        }
      ],
      "payable": false,
      "stateMutability": "view",
      "type": "function"
    },
    {
      "constant": true,
      "inputs": [],
      "name": "getDriverInfo",
      "outputs": [
        {
          "name": "",
          "type": "uint256"
        },
        {
          "name": "",
          "type": "uint256"
        },
        {
          "name": "",
          "type": "uint256"
        }
      ],
      "payable": false,
      "stateMutability": "view",
      "type": "function"
    },
    {
      "constant": true,
      "inputs": [],
      "name": "getManager",
      "outputs": [
        {
          "name": "",
          "type": "address"
        }
      ],
      "payable": false,
      "stateMutability": "view",
      "type": "function"
    }
  ],
  "bytecode": "0x6060604052341561000f57600080fd5b33600460006101000a81548173ffffffffffffffffffffffffffffffffffffffff021916908373ffffffffffffffffffffffffffffffffffffffff160217905550606460028190555060006003819055506000600a81905550600a600b819055506000600c819055506000600d819055506064600e819055506116fe806100976000396000f300606060405260043610610149576000357c0100000000000000000000000000000000000000000000000000000000900463ffffffff1680630568c53c1461014e5780630abb4fe3146101635780630b6826ca1461018c5780631ad3fba6146101a15780632bed72ae146101b65780632e3b06be146101c05780634a3297ed146101e95780634c7389091461021e57806358b08d2e146102475780636da25c111461025c5780636f9fb98a1461028557806377cb0025146102ae578063863fc11e146102e75780638e76191714610310578063918b35b31461037a57806397691f141461038f578063a2ed82ef14610399578063a3c86daf146103d7578063a5708f941461040e578063b58beec414610423578063b688a3631461042d578063d500958414610437578063f6daa08b1461048c578063f8b2cb4f146104c3578063fc1df44214610510575b600080fd5b341561015957600080fd5b610161610549565b005b341561016e57600080fd5b6101766106b2565b6040518082815260200191505060405180910390f35b341561019757600080fd5b61019f6106bc565b005b34156101ac57600080fd5b6101b4610817565b005b6101be6109ce565b005b34156101cb57600080fd5b6101d3610abb565b6040518082815260200191505060405180910390f35b34156101f457600080fd5b61021c6004808035906020019091908035906020019091908035906020019091905050610af4565b005b341561022957600080fd5b610231610b94565b6040518082815260200191505060405180910390f35b341561025257600080fd5b61025a610c79565b005b341561026757600080fd5b61026f610d3e565b6040518082815260200191505060405180910390f35b341561029057600080fd5b610298610d48565b6040518082815260200191505060405180910390f35b34156102b957600080fd5b6102e5600480803573ffffffffffffffffffffffffffffffffffffffff16906020019091905050610d52565b005b34156102f257600080fd5b6102fa610df2565b6040518082815260200191505060405180910390f35b341561031b57600080fd5b610323610dfc565b6040518080602001828103825283818151815260200191508051906020019060200280838360005b8381101561036657808201518184015260208101905061034b565b505050509050019250505060405180910390f35b341561038557600080fd5b61038d610e90565b005b610397610f80565b005b34156103a457600080fd5b6103d560048080359060200190919080359060200190919080359060200190919080359060200190919050506110e1565b005b34156103e257600080fd5b6103ea611192565b60405180848152602001838152602001828152602001935050505060405180910390f35b341561041957600080fd5b6104216111ab565b005b61042b611250565b005b610435611262565b005b341561044257600080fd5b61044a611492565b604051808273ffffffffffffffffffffffffffffffffffffffff1673ffffffffffffffffffffffffffffffffffffffff16815260200191505060405180910390f35b341561049757600080fd5b61049f6114bc565b60405180848152602001838152602001828152602001935050505060405180910390f35b34156104ce57600080fd5b6104fa600480803573ffffffffffffffffffffffffffffffffffffffff1690602001909190505061153d565b6040518082815260200191505060405180910390f35b341561051b57600080fd5b610547600480803573ffffffffffffffffffffffffffffffffffffffff16906020019091905050611588565b005b600073ffffffffffffffffffffffffffffffffffffffff166000803373ffffffffffffffffffffffffffffffffffffffff1673ffffffffffffffffffffffffffffffffffffffff16815260200190815260200160002060000160009054906101000a900473ffffffffffffffffffffffffffffffffffffffff1673ffffffffffffffffffffffffffffffffffffffff16141515156105e657600080fd5b6000803373ffffffffffffffffffffffffffffffffffffffff1673ffffffffffffffffffffffffffffffffffffffff16815260200190815260200160002060020160009054906101000a900460ff1615151561064157600080fd5b60136003016000815480929190600101919050555060016000803373ffffffffffffffffffffffffffffffffffffffff1673ffffffffffffffffffffffffffffffffffffffff16815260200190815260200160002060020160006101000a81548160ff021916908315150217905550565b6000600354905090565b6000803373ffffffffffffffffffffffffffffffffffffffff16600460009054906101000a900473ffffffffffffffffffffffffffffffffffffffff1673ffffffffffffffffffffffffffffffffffffffff1614151561071b57600080fd5b62ed4e00600d54420311151561073057600080fd5b600060035411151561074157600080fd5b600354600a5481151561075057fe5b049150600090505b6003548163ffffffff161015610804578160008060018463ffffffff1681548110151561078157fe5b906000526020600020900160009054906101000a900473ffffffffffffffffffffffffffffffffffffffff1673ffffffffffffffffffffffffffffffffffffffff1673ffffffffffffffffffffffffffffffffffffffff168152602001908152602001600020600101600082825401925050819055508080600101915050610758565b6000600a8190555042600d819055505050565b600073ffffffffffffffffffffffffffffffffffffffff166000803373ffffffffffffffffffffffffffffffffffffffff1673ffffffffffffffffffffffffffffffffffffffff16815260200190815260200160002060000160009054906101000a900473ffffffffffffffffffffffffffffffffffffffff1673ffffffffffffffffffffffffffffffffffffffff16141515156108b457600080fd5b60008060003373ffffffffffffffffffffffffffffffffffffffff1673ffffffffffffffffffffffffffffffffffffffff1681526020019081526020016000206001015411151561090457600080fd5b3373ffffffffffffffffffffffffffffffffffffffff166108fc6000803373ffffffffffffffffffffffffffffffffffffffff1673ffffffffffffffffffffffffffffffffffffffff168152602001908152602001600020600101549081150290604051600060405180830381858888f19350505050151561098557600080fd5b60008060003373ffffffffffffffffffffffffffffffffffffffff1673ffffffffffffffffffffffffffffffffffffffff16815260200190815260200160002060010181905550565b3373ffffffffffffffffffffffffffffffffffffffff16600460009054906101000a900473ffffffffffffffffffffffffffffffffffffffff1673ffffffffffffffffffffffffffffffffffffffff16141515610a2a57600080fd5b60106002015442101515610a3d57600080fd5b600960009054906101000a900473ffffffffffffffffffffffffffffffffffffffff1673ffffffffffffffffffffffffffffffffffffffff166108fc6010600101549081150290604051600060405180830381858888f193505050501515610aa457600080fd5b601060010154600a60008282540392505081905550565b610ac361164b565b6010606060405190810160405290816000820154815260200160018201548152602001600282015481525050905090565b3373ffffffffffffffffffffffffffffffffffffffff16600960009054906101000a900473ffffffffffffffffffffffffffffffffffffffff1673ffffffffffffffffffffffffffffffffffffffff16141515610b5057600080fd5b606060405190810160405280848152602001838152602001828152506010600082015181600001556020820151816001015560408201518160020155905050505050565b60008073ffffffffffffffffffffffffffffffffffffffff166000803373ffffffffffffffffffffffffffffffffffffffff1673ffffffffffffffffffffffffffffffffffffffff16815260200190815260200160002060000160009054906101000a900473ffffffffffffffffffffffffffffffffffffffff1673ffffffffffffffffffffffffffffffffffffffff1614151515610c3257600080fd5b6000803373ffffffffffffffffffffffffffffffffffffffff1673ffffffffffffffffffffffffffffffffffffffff16815260200190815260200160002060010154905090565b3373ffffffffffffffffffffffffffffffffffffffff16600560000160009054906101000a900473ffffffffffffffffffffffffffffffffffffffff1673ffffffffffffffffffffffffffffffffffffffff16141515610cd857600080fd5b6000600560010154111515610cec57600080fd5b3373ffffffffffffffffffffffffffffffffffffffff166108fc6005600101549081150290604051600060405180830381858888f193505050501515610d3157600080fd5b6000600560010181905550565b6000600254905090565b6000600a54905090565b3373ffffffffffffffffffffffffffffffffffffffff16600460009054906101000a900473ffffffffffffffffffffffffffffffffffffffff1673ffffffffffffffffffffffffffffffffffffffff16141515610dae57600080fd5b80600960006101000a81548173ffffffffffffffffffffffffffffffffffffffff021916908373ffffffffffffffffffffffffffffffffffffffff16021790555050565b6000600e54905090565b610e0461166d565b6001805480602002602001604051908101604052809291908181526020018280548015610e8657602002820191906000526020600020905b8160009054906101000a900473ffffffffffffffffffffffffffffffffffffffff1673ffffffffffffffffffffffffffffffffffffffff1681526020019060010190808311610e3c575b5050505050905090565b3373ffffffffffffffffffffffffffffffffffffffff16600460009054906101000a900473ffffffffffffffffffffffffffffffffffffffff1673ffffffffffffffffffffffffffffffffffffffff16141515610eec57600080fd5b62ed4e00600c544203111515610f0157600080fd5b600960009054906101000a900473ffffffffffffffffffffffffffffffffffffffff1673ffffffffffffffffffffffffffffffffffffffff166108fc600b549081150290604051600060405180830381858888f193505050501515610f6557600080fd5b600b54600a6000828254039250508190555042600c81905550565b60003373ffffffffffffffffffffffffffffffffffffffff16600960009054906101000a900473ffffffffffffffffffffffffffffffffffffffff1673ffffffffffffffffffffffffffffffffffffffff16141515610fde57600080fd5b6002600354811515610fec57fe5b04601360030154111515610fff57600080fd5b6010600201544210151561101257600080fd5b34600a60008282540192505081905550600090505b6003548163ffffffff1610156110de57600080600060018463ffffffff1681548110151561105157fe5b906000526020600020900160009054906101000a900473ffffffffffffffffffffffffffffffffffffffff1673ffffffffffffffffffffffffffffffffffffffff1673ffffffffffffffffffffffffffffffffffffffff16815260200190815260200160002060020160006101000a81548160ff0219169083151502179055508080600101915050611027565b50565b3373ffffffffffffffffffffffffffffffffffffffff16600960009054906101000a900473ffffffffffffffffffffffffffffffffffffffff1673ffffffffffffffffffffffffffffffffffffffff1614151561113d57600080fd5b6080604051908101604052808581526020018481526020018381526020018281525060136000820151816000015560208201518160010155604082015181600201556060820151816003015590505050505050565b6000806000600b54600c54600d54925092509250909192565b3373ffffffffffffffffffffffffffffffffffffffff16600460009054906101000a900473ffffffffffffffffffffffffffffffffffffffff1673ffffffffffffffffffffffffffffffffffffffff1614151561120757600080fd5b62278d00600560030154420311151561121f57600080fd5b60326005600101600082825401925050819055506032600a6000828254039250508190555042600560030181905550565b34600a60008282540192505081905550565b600073ffffffffffffffffffffffffffffffffffffffff166000803373ffffffffffffffffffffffffffffffffffffffff1673ffffffffffffffffffffffffffffffffffffffff16815260200190815260200160002060000160009054906101000a900473ffffffffffffffffffffffffffffffffffffffff1673ffffffffffffffffffffffffffffffffffffffff161415156112fe57600080fd5b6002546003541115151561131157600080fd5b6064341015151561132157600080fd5b6060604051908101604052803373ffffffffffffffffffffffffffffffffffffffff16815260200160008152602001600015158152506000803373ffffffffffffffffffffffffffffffffffffffff1673ffffffffffffffffffffffffffffffffffffffff16815260200190815260200160002060008201518160000160006101000a81548173ffffffffffffffffffffffffffffffffffffffff021916908373ffffffffffffffffffffffffffffffffffffffff1602179055506020820151816001015560408201518160020160006101000a81548160ff0219169083151502179055509050506001805480600101828161141d9190611681565b9160005260206000209001600033909190916101000a81548173ffffffffffffffffffffffffffffffffffffffff021916908373ffffffffffffffffffffffffffffffffffffffff16021790555050600360008154809291906001019190505550600e54600a60008282540192505081905550565b6000600460009054906101000a900473ffffffffffffffffffffffffffffffffffffffff16905090565b60008060003373ffffffffffffffffffffffffffffffffffffffff16600560000160009054906101000a900473ffffffffffffffffffffffffffffffffffffffff1673ffffffffffffffffffffffffffffffffffffffff1614151561152057600080fd5b600560010154600560020154600560030154925092509250909192565b60008060008373ffffffffffffffffffffffffffffffffffffffff1673ffffffffffffffffffffffffffffffffffffffff168152602001908152602001600020600101549050919050565b3373ffffffffffffffffffffffffffffffffffffffff16600460009054906101000a900473ffffffffffffffffffffffffffffffffffffffff1673ffffffffffffffffffffffffffffffffffffffff161415156115e457600080fd5b80600560000160006101000a81548173ffffffffffffffffffffffffffffffffffffffff021916908373ffffffffffffffffffffffffffffffffffffffff160217905550600060056001018190555060006005600301819055504260056002018190555050565b6060604051908101604052806000815260200160008152602001600081525090565b602060405190810160405280600081525090565b8154818355818115116116a8578183600052602060002091820191016116a791906116ad565b5b505050565b6116cf91905b808211156116cb5760008160009055506001016116b3565b5090565b905600a165627a7a72305820646b9e7eff70f4519a1955e781ec71cf8920b230089049f8ce10ca730be532b30029",
  "source": "pragma solidity ^0.4.18;\n\ncontract SharedTaxiBusiness{\n\n\n    struct Account{\n        address addr;\n        uint balance;\n        bool isVoted;\n    }\n    \n    struct Car{\n        uint carId;\n        uint price;\n        uint offerValidTime;\n    }\n    \n    struct Purchase {\n        uint carId;\n        uint price;\n        uint offerValidTime;\n        uint approvalState;\n    }\n    \n    struct TaxiDriver{\n        address addr;\n        uint balance;\n        uint startTime;\n        uint lastDateOfSalaryPaid;  // holds the last time of the salary paid\n    }\n    \n    mapping(address => Account) participants;\n    address[] participants_addresses;  // is required to iterate participants.\n    uint maxParticipants;  // holds maximum #participants, for this project it is 100\n    uint numberOfParticipant;  // holds total number of participants\n    \n    address manager;\n    \n    TaxiDriver taxiDriver;\n    \n    address carDealer;\n    \n    uint currentContractBalance;\n    \n    uint fixedExpenses;\n    uint lastTimeOfMaintenance;\n    \n    uint lastTimeOfDividend;\n    \n    uint participationFee;\n    \n    uint ownedCar;\n    \n    Car proposedCar;\n    Purchase proposedPurchase;\n    \n    \n    function SharedTaxiBusiness() public{\n        manager = msg.sender;\n        maxParticipants = 100;\n        numberOfParticipant = 0;\n        currentContractBalance = 0;\n        fixedExpenses = 10;\n        lastTimeOfMaintenance = 0;\n        lastTimeOfDividend = 0;\n        participationFee = 100;\n    }\n\n    function join() isNotParticipantExist isParticipantEmpty public payable{\n        require(msg.value>=100);\n        participants[msg.sender] = Account(msg.sender, 0, false);\n        participants_addresses.push(msg.sender);\n        numberOfParticipant++;\n        currentContractBalance += participationFee;\n    }\n    \n    function setCarDealer(address _carDealer) isManager public {\n        carDealer = _carDealer;\n    }\n    \n    function carPropose(uint _carId, uint _price, uint _offerValidTime) isCarDealer public {\n        proposedCar = Car(_carId, _price, _offerValidTime);\n    }\n    \n    function purchaseCar() isManager public payable{\n        require( now < proposedCar.offerValidTime );\n        \n        carDealer.transfer(proposedCar.price);\n        currentContractBalance -= proposedCar.price;\n    }\n    \n    function purchasePropose(uint _carId, uint _price, uint _offerValidTime, uint _approvalState) isCarDealer public{\n        proposedPurchase = Purchase(_carId, _price, _offerValidTime, _approvalState);\n    }\n    \n    function approveSellProposal() isParticipantExist isNotVoted public {\n        proposedPurchase.approvalState++;\n        participants[msg.sender].isVoted = true;\n    }\n\n    function sellCar() public isCarDealer doesMajorityApprove payable{\n        require( now < proposedCar.offerValidTime );\n        currentContractBalance += msg.value;\n        for(uint32 i=0;i<numberOfParticipant;i++){\n            participants[participants_addresses[i]].isVoted = false;\n        }\n    }\n\n    function setDriver(address _taxiDriver) isManager public{\n        taxiDriver.addr = _taxiDriver;\n        taxiDriver.balance = 0;\n        taxiDriver.lastDateOfSalaryPaid = 0;  \n        taxiDriver.startTime = now;\n    }\n    \n    function getCharge() public payable{\n        currentContractBalance += msg.value;\n    }\n\n    function paySalary() isManager isNotPaidThisMonth public {\n        taxiDriver.balance += 50;\n        currentContractBalance -= 50;\n        taxiDriver.lastDateOfSalaryPaid = now;\n    }\n\n    function getSalary() isTaxiDriver public{\n        require(taxiDriver.balance>0);\n        msg.sender.transfer(taxiDriver.balance);\n        taxiDriver.balance = 0; \n    }\n\n    function carExpenses() isManager public{\n        require( (now-lastTimeOfMaintenance)>60*60*24*30*6 );  // if last maintenance is over 6 months.\n        carDealer.transfer(fixedExpenses);\n        currentContractBalance -= fixedExpenses;\n        lastTimeOfMaintenance = now;\n    }\n\n    function payDividend() isManager public{\n        require( (now - lastTimeOfDividend)>60*60*24*30*6 );\n        require(numberOfParticipant>0);\n        \n        uint profitPerParticipant = currentContractBalance/numberOfParticipant;\n        \n        for(uint32 i=0;i<numberOfParticipant;i++){\n            participants[participants_addresses[i]].balance += profitPerParticipant;\n        }\n        currentContractBalance = 0;\n        lastTimeOfDividend = now;\n    }\n    \n    function getDividend() isParticipantExist public{\n        require(participants[msg.sender].balance>0);\n        \n        msg.sender.transfer(participants[msg.sender].balance);\n        participants[msg.sender].balance = 0;\n    }\n    \n    \n    // functions after this line is essential to display for website \n    // and does not cost any to call them\n    \n    function getParticipantsAddresses() public constant returns(address[]) {\n        return participants_addresses;\n    }\n    \n    function getBalance(address _address) public constant returns(uint){\n        return participants[_address].balance;\n    }\n    \n    function getProposedCar() public constant returns(Car){\n        return proposedCar;\n    }\n    \n    function getMyBalance() isParticipantExist public constant returns(uint){\n        return participants[msg.sender].balance;\n    }\n    \n    function getContractBalance() public constant returns(uint){\n        return currentContractBalance;\n    }\n    \n    function getParticipantsNumber() public constant returns(uint){\n        return numberOfParticipant;\n    }\n    \n    function getParticipationFee() public constant returns(uint){\n        return participationFee;\n    }\n    \n    function getMaxParticipant() public constant returns(uint){\n        return maxParticipants;\n    }\n    \n    function getReports() public constant returns(uint, uint, uint) {\n        return (fixedExpenses, lastTimeOfMaintenance, lastTimeOfDividend);\n    }\n    \n    function getDriverInfo() isTaxiDriver public constant returns(uint, uint, uint){\n        return (taxiDriver.balance, taxiDriver.startTime, taxiDriver.lastDateOfSalaryPaid);\n    }\n    \n    function getManager() public constant returns(address){\n        return manager;\n    }\n\n\n\n    // ----------- MODIFIERS ----------------\n    modifier isNotPaidThisMonth(){  //checks if salary of the taxi driver was paid or not in last 1 month.\n        require( (now-taxiDriver.lastDateOfSalaryPaid)>60*60*24*30 ); \n        _;\n    }\n    \n    modifier doesMajorityApprove{\n        require(proposedPurchase.approvalState>numberOfParticipant/2);\n        _;\n    }\n    \n    modifier isNotVoted(){\n        require(!participants[msg.sender].isVoted);\n        _;\n    }\n    \n    modifier isTaxiDriver(){\n        require(taxiDriver.addr == msg.sender );\n        _;\n    }    \n\n    modifier isCarDealer(){\n        require(carDealer==msg.sender);\n        _;\n    }\n    \n    modifier isManager(){\n        require(manager==msg.sender);\n        _;\n    }\n    \n    // modifier isCarProposed(){\n        // require(proposedCar != null);\n        // _;\n    // }\n    \n    \n    modifier isParticipantExist(){\n        require(participants[msg.sender].addr != address(0));\n        _;\n    }\n    \n    modifier isNotParticipantExist(){\n        require(participants[msg.sender].addr == address(0));\n        _;\n    }\n    \n    modifier isParticipantEmpty(){\n        require(numberOfParticipant<=maxParticipants);\n        _;\n    }\n    \n}\n\n\n\n\n\n\n\n\n\n\n",
  "sourcePath": "/home/samet/Desktop/block/shared-taxi-business-on-blockchain/contracts/SharedTaxiBusiness.sol",
  "compiler": {
    "name": "solc",
    "version": "0.4.18+commit.9cf6e910.Emscripten.clang"
  },
  "schemaVersion": "3.0.0",
  "updatedAt": "2019-01-16T20:29:26.914Z",
  "devdoc": {
    "methods": {}
  },
  "userdoc": {
    "methods": {}
  }
}